:100000000C942A000C9434000C9434000C943400AA
:100010000C9434000C9434000C9434000C94340090
:100020000C9434000C9434000C9434000C94340080
:100030000C9434000C9434000C9434000C94340070
:100040000C9434000C9434000C9434000C94340060
:100050000C94340011241FBECFE5D8E0DEBFCDBF25
:100060000E9460000C94C9000C940000843038F5A4
:100070009FEF960F9E3F18F1813069F028F0823093
:1000800089F08330B1F008956F3F19F48FEF8ABB88
:1000900008951ABA08956F3F19F48FEF87BB08953A
:1000A00017BA08956F3F19F48FEF84BB089514BAFF
:1000B00008956F3F19F48FEF81BB089511BA089529
:1000C000CF93DF931F92CDB7DEB78BB36FEF0E9454
:1000D00036000E9482002FE38DE093E021508040A3
:1000E0009040E1F700C000000E94910080E50E946E
:1000F000A600CE0101960E94BB0089818BBB0E94A5
:100100009F00E9CF81B18E7F81B981B18D7F81B9A7
:1001100088E480B986B7806486BF86B7846086BF6E
:10012000089586B7806286BF86B7806886BF06B6A8
:1001300007FEFDCF81B1887F8830E1F7089586B74B
:10014000806186BF86B7806886BF0895882394F053
:10015000880F83B983B1816083B986B78F7D86BFED
:1001600086B7806886BF06B607FEFDCF81B1887F5F
:100170008034E1F70895FC0196B7906896BF06B603
:1001800007FEFDCF91B1987F9035E1F783B1808371
:060190000895F894FFCF72
:00000001FF
