:100000000C942A000C9434000C9434000C943400AA
:100010000C9434000C9434000C9434000C94340090
:100020000C9434000C9434000C9434000C94340080
:100030000C9434000C9434000C9434000C94340070
:100040000C9434000C9434000C9434000C94340060
:100050000C94340011241FBECFE5D8E0DEBFCDBF25
:100060000E9482000C9466010C94000080FF04C082
:100070009BB390619BBB03C09BB39F7E9BBB81FFE7
:1000800004C09BB390629BBB03C09BB39F7D9BBB93
:1000900082FF04C09BB390649BBB03C09BB39F7B58
:1000A0009BBB83FF04C08BB380688BBB08958BB36D
:1000B0008F778BBB0895CF93C62F98B39D7F98BB46
:1000C00098B3946098BB98B3977F98BB0E94360012
:1000D0008FE59DE60197F1F700C0000088B38260CC
:1000E00088BB88B38B7F88BB88B3877F88BB8C2F06
:1000F0000E9436008FE59DE60197F1F700C00000F1
:10010000CF910895CF93DF93CDB7DEB728970FB681
:10011000F894DEBF0FBECDBF84B3846084BB84B3CC
:10012000806884BB81B3886081BB8AB388608ABBE6
:1001300087B38E7F87BB81B38F7B81BB81B38B7F7E
:1001400081BB8AB380618ABB8AB380628ABB8AB36F
:1001500080648ABB8AB380688ABB87B3826087BBAE
:1001600087B3846087BB87B3886087BB88B38260AE
:1001700088BB88B3846088BB88B3877F88BB1A82BA
:100180001982B09B0FC08BB388608BBB2FEF83EDC0
:1001900090E3215080409040E1F700C000008BB315
:1001A000877F8BBB869B0EC02FEF84E39CE02150A2
:1001B00080409040E1F700C0000089819A8101965B
:1001C0009A83898389819A81019761F485B38460D8
:1001D00085BB2FEF84E39CE0215080409040E1F705
:1001E00000C0000089819A81029761F485B380681C
:1001F00085BB2FEF84E39CE0215080409040E1F7E5
:1002000000C0000089819A81039761F482B38860FD
:1002100082BB2FEF84E39CE0215080409040E1F7C7
:1002200000C0000089819A810497A1F485B38B7F77
:1002300085BB85B38F7785BB82B3877F82BB2FEF6A
:1002400084E39CE0215080409040E1F700C0000032
:100250001A821982829B95CF1C821B8232C01E8219
:100260001D8226C02FEF89E698E121508040904002
:10027000E1F700C0000018861F8211C06D817E81E9
:100280008B819C810E945B008FE59DE60197F1F7D1
:1002900000C000008F819885019698878F838F8199
:1002A00098850A9758F38D819E8101969E838D8350
:1002B0008D819E810A97B0F28B819C8101969C83EF
:1002C0008B838B819C810A9750F25BCFF894FFCF90
:00000001FF
