:100000000C942A000C9434000C9434000C943400AA
:100010000C9434000C9434000C9434000C94340090
:100020000C9434000C9434000C9434000C94340080
:100030000C9434000C9434000C9434000C94340070
:100040000C9434000C9434000C9434000C94340060
:100050000C94340011241FBECFE5D8E0DEBFCDBF25
:100060000E9436000C949A000C9400000E945500E7
:10007000C0E02FE38DE093E0215080409040E1F715
:1000800000C000000E94640080E50E94790006C064
:10009000D1E0DC0F8C2F0E948E00CD2F81B1887FA4
:1000A0008832B1F70E947200E4CF81B18E7F81B9AE
:1000B00081B18D7F81B988E480B986B7806486BFBD
:1000C00086B7846086BF089586B7806286BF86B78C
:1000D000806886BF06B607FEFDCF81B1887F883075
:1000E000E1F7089586B7806186BF86B7806886BFCE
:1000F0000895882394F0880F83B983B18E7F83B9E4
:1001000086B78F7D86BF86B7806886BF06B607FE36
:10011000FDCF81B1887F8831E1F7089583B986B733
:10012000806886BF06B607FEFDCF81B1887F883222
:08013000E1F70895F894FFCFF8
:00000001FF
