S0190000756E6974395F6C6573736F6E325F4144432E73726563C6
S11300000C942A000C943F000C943F000C943F0085
S11300100C943F000C943F000C943F000C943F0060
S11300200C943F000C943F000C943F000C943F0050
S11300300C943F000C943F000C943F000C943F0040
S11300400C943F000C943F000C943F000C943F0030
S11300500C943F0011241FBECFE5D8E0DEBFCDBF16
S113006010E0A0E6B0E0EEEEF8E002C005900D92DC
S1130070A037B107D9F70E94D3020C9475040C94ED
S1130080000087B1806487B987B18F7787B987B15A
S11300908F7D87B986B18F7D86B986B1877F86B912
S11300A086B18E7F86B986B1826086B986B1846056
S11300B086B986B1806886B908958032B0F4611536
S11300C0710599F097B1907E97B997B1892B87B94B
S11300D086B1806486B9349BFECF86B1806186B9CF
S11300E084B195B1FB01918380830895843008F035
S11300F072C0683008F06FC0423008F06CC08130C4
S113010001F130F08230B1F1833009F44CC008952C
S1130110413059F42AB381E090E002C0880F991F5E
S11301206A95E2F7822B8ABB08952AB381E090E0B6
S113013002C0880F991F6A95E2F7809582238ABBD3
S11301400895413059F427B381E090E002C0880F4C
S1130150991F6A95E2F7822B87BB089527B381E044
S113016090E002C0880F991F6A95E2F78095822378
S113017087BB0895413059F424B381E090E002C074
S1130180880F991F6A95E2F7822B84BB089524B3E4
S113019081E090E002C0880F991F6A95E2F780958C
S11301A0822384BB0895413059F421B381E090E067
S11301B002C0880F991F6A95E2F7822B81BB0895CC
S11301C021B381E090E002C0880F991F6A95E2F79D
S11301D08095822381BB0895843008F072C0683012
S11301E008F06FC0423008F06CC0813001F130F08B
S11301F08230B1F1833009F44CC00895413059F490
S11302002BB381E090E002C0880F991F6A95E2F752
S1130210822B8BBB08952BB381E090E002C0880F42
S1130220991F6A95E2F7809582238BBB089541302C
S113023059F428B381E090E002C0880F991F6A95B1
S1130240E2F7822B88BB089528B381E090E002C0D6
S1130250880F991F6A95E2F78095822388BB0895D9
S1130260413059F425B381E090E002C0880F991F12
S11302706A95E2F7822B85BB089525B381E090E06F
S113028002C0880F991F6A95E2F78095822385BB87
S11302900895413059F422B381E090E002C0880F00
S11302A0991F6A95E2F7822B82BB089522B381E0FD
S11302B090E002C0880F991F6A95E2F78095822327
S11302C082BB0895CF93C82F80FF06C041E064E04D
S11302D081E00E94EC0005C040E064E081E00E94FF
S11302E0EC00C1FF06C041E065E081E00E94EC0043
S11302F005C040E065E081E00E94EC00C2FF06C05A
S113030041E066E081E00E94EC0005C040E066E068
S113031081E00E94EC00C3FF06C041E067E081E099
S11303200E94EC0005C040E067E081E00E94EC0020
S1130330CF910895CF93C82F40E061E081E00E94FF
S1130340EC0040E062E081E00E94EC008C2F82959A
S11303508F700E94620141E063E081E00E94EC0042
S11303608FE99FE00197F1F700C0000040E063E0EF
S113037081E00E94EC008C2F0E94620141E063E066
S113038081E00E94EC008FE99FE00197F1F700C043
S1130390000040E063E081E00E94EC00CF9108950A
S11303A02FE785EB91E0215080409040E1F700C0B9
S11303B0000040E061E081E00E94EC0040E062E087
S11303C081E00E94EC0082E00E94620141E063E06F
S11303D081E00E94EC008FE99FE00197F1F700C0F3
S11303E0000040E063E081E00E94EC0088E20E94AB
S11303F09A0190EF9A95F1F78FE00E949A0120EF0D
S11304002A95F1F781E00E949A018FE39FE1019719
S1130410F1F700C0000086E00E949A010895CF938E
S1130420C82F41E061E081E00E94EC0040E062E01E
S113043081E00E94EC008C2F82958F700E946201F3
S113044041E063E081E00E94EC008FE99FE00197C6
S1130450F1F700C0000040E063E081E00E94EC009E
S11304608C2F0E94620141E063E081E00E94EC0075
S11304708FE99FE00197F1F700C0000040E063E0DE
S113048081E00E94EC00CF9108950F931F93CF93C6
S1130490009729F40CC00E940F02CF5F02C08C01A8
S11304A0C0E0F801EC0FF11D80818111F4CFCF91F0
S11304B01F910F91089581E00E949A018FE39FE1BB
S11304C00197F1F700C000000895813039F46031DC
S11304D068F480E8860F0E949A010895823031F40E
S11304E0603120F480EC860F0E949A010895CF9227
S11304F0DF92EF92FF920F931F938B019C01672B66
S1130500682B692B49F580E30E940F0245C0DC018A
S1130510CB01880F991FAA1FBB1F6C017D01CC0C56
S1130520DD1CEE1CFF1CCC0CDD1CEE1CFF1CC80EDD
S1130530D91EEA1EFB1EC901B8012AE030E040E0E2
S113054050E00E9444046C0D7D1D8E1D9F1D022FE2
S1130550132F242F352F04C061E070E080E090E079
S1130560011511052105310591F62AE030E040E03E
S113057050E00E944404E22EF32E042F152F80E352
S1130580860F0E940F026E2D7F2D802F912F6130D8
S113059071058105910549F71F910F91FF90EF9027
S11305A0DF90CF900895CF93DF9300D0CDB7DEB71F
S11305B041E064E081E00E94760041E065E081E092
S11305C00E94760041E066E081E00E94760041E00E
S11305D067E081E00E94760041E061E081E00E94F2
S11305E0760041E062E081E00E94760041E063E051
S11305F081E00E9476000E94D0010E944100BE0169
S11306006F5F7F4F81E00E945D0060E081E00E94A7
S1130610650280E690E00E9445026AE081E00E9463
S1130620650229813A81A4E6B0E00E9466046B0168
S11306307C010B2EBAE0F694E794D794C794BA954C
S1130640D1F7B02DC701B6010E9477022AE0C21685
S1130650D104E104F10440F463E082E00E94650205
S11306608FEF0E940F0204C184E1C816D104E10493
S1130670F10458F463E082E00E9465028FEF0E9467
S11306800F028FEF0E940F02F3C09EE1C916D1043E
S1130690E104F10470F463E082E00E9465028FEFEC
S11306A00E940F028FEF0E940F028FEF0E940F0231
S11306B0DFC028E2C216D104E104F10488F463E047
S11306C082E00E9465028FEF0E940F028FEF0E946A
S11306D00F028FEF0E940F028FEF0E940F02C8C01B
S11306E082E3C816D104E104F104A0F463E082E0DB
S11306F00E9465028FEF0E940F028FEF0E940F028B
S11307008FEF0E940F028FEF0E940F028FEF0E9463
S11307100F02AEC09CE3C916D104E104F104B8F49D
S113072063E082E00E9465028FEF0E940F028FEF68
S11307300E940F028FEF0E940F028FEF0E940F02A0
S11307408FEF0E940F028FEF0E940F0291C026E4E8
S1130750C216D104E104F104D0F463E082E00E9403
S113076065028FEF0E940F028FEF0E940F028FEF3E
S11307700E940F028FEF0E940F028FEF0E940F0260
S11307808FEF0E940F028FEF0E940F0271C080E56D
S1130790C816D104E104F104E8F463E082E00E94A5
S11307A065028FEF0E940F028FEF0E940F028FEFFE
S11307B00E940F028FEF0E940F028FEF0E940F0220
S11307C08FEF0E940F028FEF0E940F028FEF0E94A3
S11307D00F024EC09AE5C916D104E104F10400F5F4
S11307E063E082E00E9465028FEF0E940F028FEFA8
S11307F00E940F028FEF0E940F028FEF0E940F02E0
S11308008FEF0E940F028FEF0E940F028FEF0E9462
S11308100F028FEF0E940F028FEF0E940F0228C079
S113082024E6C216D104E104F10410F563E082E089
S11308300E9465028FEF0E940F028FEF0E940F0249
S11308408FEF0E940F028FEF0E940F028FEF0E9422
S11308500F028FEF0E940F028FEF0E940F028FEFA3
S11308600E940F028FEF0E940F028FEF0E940F026F
S11308708FEF94E32CE0815090402040E1F700C0DA
S113088000000E945B02BBCEA1E21A2EAA1BBB1B76
S1130890FD010DC0AA1FBB1FEE1FFF1FA217B30748
S11308A0E407F50720F0A21BB30BE40BF50B661F5E
S11308B0771F881F991F1A9469F760957095809522
S11308C090959B01AC01BD01CF010895A29FB00199
S11308D0B39FC001A39F700D811D1124911DB29F70
S11108E0700D811D1124911D0895F894FFCF11
S11308EE564F4C542056414C3A20202020250000CF
S9030000FC
