:100000000C942A000C9434000C9434000C943400AA
:100010000C9434000C9434000C9434000C94340090
:100020000C9434000C9434000C9434000C94340080
:100030000C9434000C9434000C9434000C94340070
:100040000C9434000C9434000C9434000C94340060
:100050000C94340011241FBECFE5D8E0DEBFCDBF25
:100060000E9460000C9490000C940000843038F5DD
:100070009FEF960F9E3F18F1813069F028F0823093
:1000800089F08330B1F008956F3F19F48FEF8ABB88
:1000900008951ABA08956F3F19F48FEF87BB08953A
:1000A00017BA08956F3F19F48FEF84BB089514BAFF
:1000B00008956F3F19F48FEF81BB089511BA089529
:1000C0008BB36FEF0E94360080E50E946C0081E0E8
:1000D0000E947A008BBBFBCF88235CF0880F82B92B
:1000E00082B18E7F82B986B7806486BF86B784600E
:1000F00086BF089584EC86BF06B607FEFDCF01C01B
:1001000081B181B18036E1F784EC86BF06B607FE87
:10011000FDCF01C081B181B18038E1F783B108958D
:04012000F894FFCF81
:00000001FF
