S01D0000756E6974385F6C6573736F6E345F53656374696F6E2E73726563B4
S11300000C942A000C9434000C9434000C943400A6
S11300100C9434000C9434000C9434000C9434008C
S11300200C9434000C9434000C9434000C9434007C
S11300300C9434000C9434000C9434000C9434006C
S11300400C9434000C9434000C9434000C9434005C
S11300500C94340011241FBECFE5D8E0DEBFCDBF21
S11300600E940F020C949B020C940000843008F050
S113007072C0683008F06FC0423008F06CC0813044
S113008001F130F08230B1F1833009F44CC00895AD
S1130090413059F42AB381E090E002C0880F991FDF
S11300A06A95E2F7822B8ABB08952AB381E090E037
S11300B002C0880F991F6A95E2F7809582238ABB54
S11300C00895413059F427B381E090E002C0880FCD
S11300D0991F6A95E2F7822B87BB089527B381E0C5
S11300E090E002C0880F991F6A95E2F780958223F9
S11300F087BB0895413059F424B381E090E002C0F5
S1130100880F991F6A95E2F7822B84BB089524B364
S113011081E090E002C0880F991F6A95E2F780950C
S1130120822384BB0895413059F421B381E090E0E7
S113013002C0880F991F6A95E2F7822B81BB08954C
S113014021B381E090E002C0880F991F6A95E2F71D
S11301508095822381BB0895843008F072C0683092
S113016008F06FC0423008F06CC0813001F130F00B
S11301708230B1F1833009F44CC00895413059F410
S11301802BB381E090E002C0880F991F6A95E2F7D3
S1130190822B8BBB08952BB381E090E002C0880FC3
S11301A0991F6A95E2F7809582238BBB08954130AD
S11301B059F428B381E090E002C0880F991F6A9532
S11301C0E2F7822B88BB089528B381E090E002C057
S11301D0880F991F6A95E2F78095822388BB08955A
S11301E0413059F425B381E090E002C0880F991F93
S11301F06A95E2F7822B85BB089525B381E090E0F0
S113020002C0880F991F6A95E2F78095822385BB07
S11302100895413059F422B381E090E002C0880F80
S1130220991F6A95E2F7822B82BB089522B381E07D
S113023090E002C0880F991F6A95E2F780958223A7
S113024082BB0895CF93C82F80FF06C041E064E0CD
S113025080E00E94AC0005C040E064E080E00E94C1
S1130260AC00C1FF06C041E065E080E00E94AC0044
S113027005C040E065E080E00E94AC00C2FF06C01B
S113028041E066E080E00E94AC0005C040E066E02A
S113029080E00E94AC00C3FF06C041E067E080E05C
S11302A00E94AC0005C040E067E080E00E94AC0022
S11302B0CF910895CF93C82F40E061E081E00E9480
S11302C0AC0040E062E081E00E94AC008C2F82959B
S11302D08F700E94220141E063E081E00E94AC0043
S11302E08FE99FE00197F1F700C0000040E063E070
S11302F081E00E94AC008C2F0E94220141E063E067
S113030081E00E94AC008FE99FE00197F1F700C003
S1130310000040E063E081E00E94AC00CF910895CA
S11303202FE785EB91E0215080409040E1F700C039
S1130330000040E061E081E00E94AC0040E062E047
S113034081E00E94AC0082E00E94220141E063E06F
S113035081E00E94AC008FE99FE00197F1F700C0B3
S1130360000040E063E081E00E94AC0088E20E946B
S11303705A0190EF9A95F1F78DE00E945A0120EF0F
S11303802A95F1F781E00E945A018FE39FE10197DA
S1130390F1F700C0000086E00E945A010895CF934F
S11303A0C82F41E061E081E00E94AC0040E062E0DF
S11303B081E00E94AC008C2F82958F700E942201F4
S11303C041E063E081E00E94AC008FE99FE0019787
S11303D0F1F700C0000040E063E081E00E94AC005F
S11303E08C2F0E94220141E063E081E00E94AC0076
S11303F08FE99FE00197F1F700C0000040E063E05F
S113040081E00E94AC00CF91089581E00E945A01DE
S11304108FE39FE10197F1F700C000000895CF93A7
S1130420DF931F92CDB7DEB741E064E080E00E9425
S1130430360041E065E080E00E94360041E066E07D
S113044080E00E94360041E067E080E00E943600D0
S113045041E061E081E00E94360041E062E081E039
S11304600E94360041E063E081E00E94360041E0F2
S113047065E081E00E94360040E066E081E00E9491
S1130480360041E067E081E00E94360041E064E02C
S113049081E00E94360041E064E081E00E94AC000B
S11304A00E9490010E94780210E01FC040E064E0C6
S11304B081E00E94AC00BE016F5F7F4F812F0E94DC
S11304C0910241E064E081E00E94AC0089810E94D5
S11304D0CF012FEF89E698E1215080409040E1F769
S11304E000C000000E9405021F5F1A30F8F2DCCF42
S11304F08DB180628DB98DB180618DB98DB1886007
S11305008DB98DB184608DB98DB181608DB98DB196
S11305108D7F8DB98EB18E7F8EB98DB180648DB98A
S113052008956115710531F08FB9779BFECF8FB1B6
S10D0530FB0180830895F894FFCFC7
S9030000FC
