:100000000C942A000C943C000C943C000C943C0092
:100010000C943C000C943C000C943C000C943C0070
:100020000C943C000C943C000C941B010C94DA00E2
:100030000C943C000C943C000C943C000C943C0050
:100040000C943C000C943C000C943C000C943C0040
:100050000C943C0011241FBECFE5D8E0DEBFCDBF1D
:1000600020E0A0E6B0E001C01D92A836B207E1F79B
:100070000E94B4000C9454010C940000843008F0E9
:1000800072C0683008F06FC0423008F06CC0813038
:1000900001F130F08230B1F1833009F44CC00895A1
:1000A000413059F42AB381E090E002C0880F991FD3
:1000B0006A95E2F7822B8ABB08952AB381E090E02B
:1000C00002C0880F991F6A95E2F7809582238ABB48
:1000D0000895413059F427B381E090E002C0880FC1
:1000E000991F6A95E2F7822B87BB089527B381E0B9
:1000F00090E002C0880F991F6A95E2F780958223ED
:1001000087BB0895413059F424B381E090E002C0E8
:10011000880F991F6A95E2F7822B84BB089524B358
:1001200081E090E002C0880F991F6A95E2F7809500
:10013000822384BB0895413059F421B381E090E0DB
:1001400002C0880F991F6A95E2F7822B81BB089540
:1001500021B381E090E002C0880F991F6A95E2F711
:100160008095822381BB089541E063E081E00E9495
:100170003E000E94C1000E94D00082E30E94CE0097
:10018000FFCF83B7806483BF83B7886083BF83B7A3
:100190008F7E83BF83B7806283BF08958CBF08952D
:1001A00083B7816083BF83B7826083BF83B78B7F50
:1001B00083BF08951F920F920FB60F9211242F93B1
:1001C0003F934F935F936F937F938F939F93AF93DF
:1001D000BF93EF93FF93809162009091630001962B
:1001E000909363008093620086E082BF80916200FA
:1001F00090916300883E934069F486E082BF10923C
:10020000630010926200E0916600F0916700309701
:1002100009F00995FF91EF91BF91AF919F918F9157
:100220007F916F915F914F913F912F910F900FBEF2
:100230000F901F9018951F920F920FB60F921124D6
:100240002F933F934F935F936F937F938F939F93DE
:10025000AF93BF93EF93FF93809160009091610003
:1002600001969093610080936000883E934059F41A
:100270001092610010926000E0916400F0916500BE
:10028000309709F00995FF91EF91BF91AF919F9140
:100290008F917F916F915F914F913F912F910F902F
:0C02A0000FBE0F901F901895F894FFCF30
:00000001FF
