S01B0000756E6974385F6C6573736F6E315F54696D65722E737265638D
S11300000C942A000C943C000C943C000C943C008E
S11300100C943C000C943C000C943C000C943C006C
S11300200C943C000C943C000C94DB000C94930066
S11300300C943C000C943C000C943C000C943C004C
S11300400C943C000C943C000C943C000C943C003C
S11300500C943C0011241FBECFE5D8E0DEBFCDBF19
S113006020E0A0E6B0E001C01D92A836B207E1F797
S11300700E9470000C9414010C940000843038F534
S11300809FEF960F9E3F18F1813069F028F082307F
S113009089F08330B1F008956F3F19F48FEF8ABB74
S11300A008951ABA08956F3F19F48FEF87BB089526
S11300B017BA08956F3F19F48FEF84BB089514BAEB
S11300C008956F3F19F48FEF81BB089511BA089515
S11300D08FB780688FBF08958BB380958BBB0895CD
S11300E06FEF80E00E943E000E9468008CE690E082
S11300F00E94D4000E947F000E948900FFCF83B732
S11301008F7B83BF83B7886083BF89B7826089BFD1
S1130110089583B7816083BF83B7826083BF83B749
S11301208B7F83BF08951F920F920FB60F921124F5
S11301302F933F934F935F936F937F938F939F93EB
S1130140AF93BF93EF93FF9380916200909163000C
S11301500196909363008093620086E082BF809151
S1130160620090916300883E934069F486E082BF08
S11301701092630010926200E0916600F0916700B3
S1130180309709F00995FF91EF91BF91AF919F913D
S11301908F917F916F915F914F913F912F910F902C
S11301A00FBE0F901F901895009721F09093650053
S11301B08093640008951F920F920FB60F9211243A
S11301C02F933F934F935F936F937F938F939F935B
S11301D0AF93BF93EF93FF93809160009091610080
S11301E001969093610080936000883E934059F497
S11301F01092610010926000E0916400F09165003B
S1130200309709F00995FF91EF91BF91AF919F91BC
S11302108F917F916F915F914F913F912F910F90AB
S10F02200FBE0F901F901895F894FFCFAC
S9030000FC
