:1000000014040020390400002D0400002D04000019
:1000100080B400AFBD4680BC704700BF80B400AF65
:1000200040F21843C2F2000340F25502C0F200024F
:100030001A60BD4680BC704780B400AF40F21843E0
:10004000C2F2000340F27102C0F200021A60BD4623
:1000500080BC704780B500AF40F21443C2F2000389
:100060004FF001021A704FF0000000F085F880BDDB
:1000700080B500AF40F21443C2F200034FF000021B
:100080001A704FF0010000F077F880BD80B400AF27
:1000900040F22043C2F2000340F2AD02C0F200027F
:1000A0001A601846BD4680BC704700BF80B500AFDF
:1000B00040F21C43C2F200034FF001021A70FFF736
:1000C000ADFF40F22043C2F2000340F2D902C0F279
:1000D00000021A6080BD00BF80B500AF40F21C4333
:1000E000C2F200034FF002021A7040F20003C2F2A3
:1000F00000031B68184600F021F840F22043C2F2CA
:10010000000340F21112C0F200021A6080BD00BF6D
:1001100080B500AF40F21C43C2F200034FF0000272
:100120001A70FFF789FF40F22043C2F2000340F249
:100130001112C0F200021A6080BD00BF80B483B00B
:1001400000AF786003E07B6803F1FF337B607B687E
:10015000002BF8D107F10C07BD4680BC704700BFEB
:1001600080B400AF40F60803C4F201031B68DBB2A1
:100170001846BD4680BC704780B483B000AF78603D
:100180007B68012B0CD140F60C03C4F2010340F64E
:100190000C02C4F20102126842F400521A600EE02E
:1001A0007B68002B0BD140F60C03C4F2010340F630
:1001B0000C02C4F20102126822F400521A6007F124
:1001C0000C07BD4680BC704780B400AF41F21803F5
:1001D000C4F2020341F21802C4F20202126842F0B1
:1001E00004021A604FF40063C4F201034FF400628A
:1001F000C4F20102126822F470021A604FF4006324
:10020000C4F201034FF40062C4F2010212681A60E2
:1002100040F60403C4F2010340F60402C4F20102F2
:10022000126822F470021A6040F60403C4F201035B
:1002300040F60402C4F20102126842F022321A604F
:10024000BD4680BC704700BF80B500AFFFF7BCFF64
:1002500000F0A6F8FFF7DCFE40F22C43C2F20003E8
:1002600040F2AD32C0F200021A6040F22843C2F2FE
:10027000000340F26D32C0F200021A6040F22043E7
:10028000C2F2000340F21112C0F200021A6040F202
:100290001843C2F2000340F27102C0F200021A6079
:1002A00080BD00BF80B500AFFFF7CEFFFFF78CFF2A
:1002B00040F22C43C2F200031B68984740F22843E7
:1002C000C2F200031B68984740F22043C2F20003C9
:1002D0001B68984740F21843C2F200031B68984716
:1002E0004FF00A00FFF72AFFE2E700BF80B483B0B7
:1002F00000AF786040F20403C2F200031B687A6822
:100300009A4209DD40F22843C2F2000340F235323E
:10031000C0F200021A6008E040F22843C2F2000373
:1003200040F26D32C0F200021A6007F10C07BD46C0
:1003300080BC704780B500AF40F22543C2F2000395
:100340004FF000021A70FFF7A1FEFFF709FF024607
:1003500040F20C03C2F200031A6040F20C03C2F236
:1003600000031B681846FFF7C1FF80BD80B500AFD2
:1003700040F22543C2F200034FF001021A70FFF76A
:10038000EFFE024640F20C03C2F200031A6040F294
:100390000C03C2F200031B681846FFF7A7FF80BDDD
:1003A00080B400AFBD4680BC704700BF80B500AFD1
:1003B00040F22443C2F200034FF000021A70FFF72C
:1003C000CFFE024640F21003C2F200031A6040F270
:1003D0001003C2F200031B681846FFF787FF40F2C4
:1003E0002C43C2F2000340F2F532C0F200021A6060
:1003F00080BD00BF80B500AF40F22443C2F20003CD
:100400004FF000021A7040F20803C2F200031B68AA
:100410001846FFF793FE40F22C43C2F2000340F26D
:10042000AD32C0F200021A6080BD00BF80B500AFDF
:1004300000F002F880BD00BF80B586B000AF40F28A
:100440000C02C2F2000240F20003C2F20003D31A0F
:10045000BB6040F2E843C0F200033B6140F200039E
:10046000C2F20003FB604FF000037B610FE03B69C9
:100470001A78FB681A70FB6803F10103FB603B69A3
:1004800003F101033B617B6903F101037B617A693D
:10049000BB689A42EBD340F21442C2F2000240F22F
:1004A0000C03C2F20003D31A7B6040F20C03C2F2C9
:1004B0000003FB604FF000037B610BE0FB684FF033
:1004C00000021A70FB6803F10103FB607B6903F112
:1004D00001037B617A697B689A42EFD3FFF7E2FE02
:0804E00007F11807BD4680BDBD
:0C04E8003C000000140000006400000054
:00000001FF
